{
  "_format": "hh-sol-artifact-1",
  "contractName": "ProfileImageNfts",
  "sourceName": "contracts/ProfileImageNfts.sol",
  "abi": [
    {
      "inputs": [],
      "stateMutability": "nonpayable",
      "type": "constructor"
    },
    {
      "anonymous": false,
      "inputs": [
        {
          "indexed": true,
          "internalType": "address",
          "name": "owner",
          "type": "address"
        },
        {
          "indexed": true,
          "internalType": "address",
          "name": "approved",
          "type": "address"
        },
        {
          "indexed": true,
          "internalType": "uint256",
          "name": "tokenId",
          "type": "uint256"
        }
      ],
      "name": "Approval",
      "type": "event"
    },
    {
      "anonymous": false,
      "inputs": [
        {
          "indexed": true,
          "internalType": "address",
          "name": "owner",
          "type": "address"
        },
        {
          "indexed": true,
          "internalType": "address",
          "name": "operator",
          "type": "address"
        },
        {
          "indexed": false,
          "internalType": "bool",
          "name": "approved",
          "type": "bool"
        }
      ],
      "name": "ApprovalForAll",
      "type": "event"
    },
    {
      "anonymous": false,
      "inputs": [
        {
          "indexed": false,
          "internalType": "uint256",
          "name": "_fromTokenId",
          "type": "uint256"
        },
        {
          "indexed": false,
          "internalType": "uint256",
          "name": "_toTokenId",
          "type": "uint256"
        }
      ],
      "name": "BatchMetadataUpdate",
      "type": "event"
    },
    {
      "anonymous": false,
      "inputs": [
        {
          "indexed": false,
          "internalType": "uint256",
          "name": "_tokenId",
          "type": "uint256"
        }
      ],
      "name": "MetadataUpdate",
      "type": "event"
    },
    {
      "anonymous": false,
      "inputs": [
        {
          "indexed": true,
          "internalType": "address",
          "name": "previousOwner",
          "type": "address"
        },
        {
          "indexed": true,
          "internalType": "address",
          "name": "newOwner",
          "type": "address"
        }
      ],
      "name": "OwnershipTransferred",
      "type": "event"
    },
    {
      "anonymous": false,
      "inputs": [
        {
          "indexed": true,
          "internalType": "address",
          "name": "from",
          "type": "address"
        },
        {
          "indexed": true,
          "internalType": "address",
          "name": "to",
          "type": "address"
        },
        {
          "indexed": true,
          "internalType": "uint256",
          "name": "tokenId",
          "type": "uint256"
        }
      ],
      "name": "Transfer",
      "type": "event"
    },
    {
      "inputs": [
        {
          "internalType": "address",
          "name": "to",
          "type": "address"
        },
        {
          "internalType": "uint256",
          "name": "tokenId",
          "type": "uint256"
        }
      ],
      "name": "approve",
      "outputs": [],
      "stateMutability": "nonpayable",
      "type": "function"
    },
    {
      "inputs": [
        {
          "internalType": "address",
          "name": "owner",
          "type": "address"
        }
      ],
      "name": "balanceOf",
      "outputs": [
        {
          "internalType": "uint256",
          "name": "",
          "type": "uint256"
        }
      ],
      "stateMutability": "view",
      "type": "function"
    },
    {
      "inputs": [],
      "name": "getAllTokens",
      "outputs": [
        {
          "components": [
            {
              "internalType": "uint256",
              "name": "id",
              "type": "uint256"
            },
            {
              "internalType": "string",
              "name": "uri",
              "type": "string"
            },
            {
              "internalType": "string",
              "name": "space",
              "type": "string"
            }
          ],
          "internalType": "struct ProfileImageNfts.RenderToken[]",
          "name": "",
          "type": "tuple[]"
        }
      ],
      "stateMutability": "view",
      "type": "function"
    },
    {
      "inputs": [
        {
          "internalType": "uint256",
          "name": "tokenId",
          "type": "uint256"
        }
      ],
      "name": "getApproved",
      "outputs": [
        {
          "internalType": "address",
          "name": "",
          "type": "address"
        }
      ],
      "stateMutability": "view",
      "type": "function"
    },
    {
      "inputs": [
        {
          "internalType": "address",
          "name": "owner",
          "type": "address"
        },
        {
          "internalType": "address",
          "name": "operator",
          "type": "address"
        }
      ],
      "name": "isApprovedForAll",
      "outputs": [
        {
          "internalType": "bool",
          "name": "",
          "type": "bool"
        }
      ],
      "stateMutability": "view",
      "type": "function"
    },
    {
      "inputs": [
        {
          "internalType": "address",
          "name": "recipient",
          "type": "address"
        },
        {
          "internalType": "string",
          "name": "_uri",
          "type": "string"
        }
      ],
      "name": "mint",
      "outputs": [
        {
          "internalType": "uint256",
          "name": "",
          "type": "uint256"
        }
      ],
      "stateMutability": "nonpayable",
      "type": "function"
    },
    {
      "inputs": [],
      "name": "name",
      "outputs": [
        {
          "internalType": "string",
          "name": "",
          "type": "string"
        }
      ],
      "stateMutability": "view",
      "type": "function"
    },
    {
      "inputs": [],
      "name": "owner",
      "outputs": [
        {
          "internalType": "address",
          "name": "",
          "type": "address"
        }
      ],
      "stateMutability": "view",
      "type": "function"
    },
    {
      "inputs": [
        {
          "internalType": "uint256",
          "name": "tokenId",
          "type": "uint256"
        }
      ],
      "name": "ownerOf",
      "outputs": [
        {
          "internalType": "address",
          "name": "",
          "type": "address"
        }
      ],
      "stateMutability": "view",
      "type": "function"
    },
    {
      "inputs": [],
      "name": "renounceOwnership",
      "outputs": [],
      "stateMutability": "nonpayable",
      "type": "function"
    },
    {
      "inputs": [
        {
          "internalType": "address",
          "name": "from",
          "type": "address"
        },
        {
          "internalType": "address",
          "name": "to",
          "type": "address"
        },
        {
          "internalType": "uint256",
          "name": "tokenId",
          "type": "uint256"
        }
      ],
      "name": "safeTransferFrom",
      "outputs": [],
      "stateMutability": "nonpayable",
      "type": "function"
    },
    {
      "inputs": [
        {
          "internalType": "address",
          "name": "from",
          "type": "address"
        },
        {
          "internalType": "address",
          "name": "to",
          "type": "address"
        },
        {
          "internalType": "uint256",
          "name": "tokenId",
          "type": "uint256"
        },
        {
          "internalType": "bytes",
          "name": "data",
          "type": "bytes"
        }
      ],
      "name": "safeTransferFrom",
      "outputs": [],
      "stateMutability": "nonpayable",
      "type": "function"
    },
    {
      "inputs": [
        {
          "internalType": "address",
          "name": "operator",
          "type": "address"
        },
        {
          "internalType": "bool",
          "name": "approved",
          "type": "bool"
        }
      ],
      "name": "setApprovalForAll",
      "outputs": [],
      "stateMutability": "nonpayable",
      "type": "function"
    },
    {
      "inputs": [
        {
          "internalType": "bytes4",
          "name": "interfaceId",
          "type": "bytes4"
        }
      ],
      "name": "supportsInterface",
      "outputs": [
        {
          "internalType": "bool",
          "name": "",
          "type": "bool"
        }
      ],
      "stateMutability": "view",
      "type": "function"
    },
    {
      "inputs": [],
      "name": "symbol",
      "outputs": [
        {
          "internalType": "string",
          "name": "",
          "type": "string"
        }
      ],
      "stateMutability": "view",
      "type": "function"
    },
    {
      "inputs": [
        {
          "internalType": "uint256",
          "name": "tokenId",
          "type": "uint256"
        }
      ],
      "name": "tokenURI",
      "outputs": [
        {
          "internalType": "string",
          "name": "",
          "type": "string"
        }
      ],
      "stateMutability": "view",
      "type": "function"
    },
    {
      "inputs": [
        {
          "internalType": "address",
          "name": "from",
          "type": "address"
        },
        {
          "internalType": "address",
          "name": "to",
          "type": "address"
        },
        {
          "internalType": "uint256",
          "name": "tokenId",
          "type": "uint256"
        }
      ],
      "name": "transferFrom",
      "outputs": [],
      "stateMutability": "nonpayable",
      "type": "function"
    },
    {
      "inputs": [
        {
          "internalType": "address",
          "name": "newOwner",
          "type": "address"
        }
      ],
      "name": "transferOwnership",
      "outputs": [],
      "stateMutability": "nonpayable",
      "type": "function"
    }
  ],
  "bytecode": "0x608060405234801561001057600080fd5b506040518060400160405280601081526020016f50726f66696c65496d6167654e66747360801b815250604051806040016040528060038152602001622824a760e91b81525081600090816100659190610185565b5060016100728282610185565b50505061008b61008661009060201b60201c565b610094565b610243565b3390565b600780546001600160a01b038381166001600160a01b0319831681179093556040519116919082907f8be0079c531659141344cd1fd0a4f28419497f9722a3daafe3b4186f6b6457e090600090a35050565b634e487b7160e01b600052604160045260246000fd5b600181811c9082168061011057607f821691505b60208210810361013057634e487b7160e01b600052602260045260246000fd5b50919050565b601f82111561018057806000526020600020601f840160051c8101602085101561015d5750805b601f840160051c820191505b8181101561017d5760008155600101610169565b50505b505050565b81516001600160401b0381111561019e5761019e6100e6565b6101b2816101ac84546100fc565b84610136565b6020601f8211600181146101e657600083156101ce5750848201515b600019600385901b1c1916600184901b17845561017d565b600084815260208120601f198516915b8281101561021657878501518255602094850194600190920191016101f6565b50848210156102345786840151600019600387901b60f8161c191681555b50505050600190811b01905550565b611a16806102526000396000f3fe608060405234801561001057600080fd5b50600436106101165760003560e01c8063715018a6116100a2578063b88d4fde11610071578063b88d4fde1461023b578063c87b56dd1461024e578063d0def52114610261578063e985e9c514610274578063f2fde38b146102b057600080fd5b8063715018a6146102075780638da5cb5b1461020f57806395d89b4114610220578063a22cb4651461022857600080fd5b806323b872dd116100e957806323b872dd146101985780632a5c792a146101ab57806342842e0e146101c05780636352211e146101d357806370a08231146101e657600080fd5b806301ffc9a71461011b57806306fdde0314610143578063081812fc14610158578063095ea7b314610183575b600080fd5b61012e610129366004611345565b6102c3565b60405190151581526020015b60405180910390f35b61014b6102ee565b60405161013a91906113b2565b61016b6101663660046113c5565b610380565b6040516001600160a01b03909116815260200161013a565b6101966101913660046113fa565b6103a7565b005b6101966101a6366004611424565b6104c1565b6101b36104f2565b60405161013a9190611461565b6101966101ce366004611424565b610639565b61016b6101e13660046113c5565b610654565b6101f96101f43660046114f7565b6106b4565b60405190815260200161013a565b61019661073a565b6007546001600160a01b031661016b565b61014b61074e565b610196610236366004611512565b61075d565b6101966102493660046115de565b61076c565b61014b61025c3660046113c5565b6107a4565b6101f961026f36600461165a565b6108b4565b61012e6102823660046116bc565b6001600160a01b03918216600090815260056020908152604080832093909416825291909152205460ff1690565b6101966102be3660046114f7565b6108f4565b60006001600160e01b03198216632483248360e11b14806102e857506102e88261096d565b92915050565b6060600080546102fd906116ef565b80601f0160208091040260200160405190810160405280929190818152602001828054610329906116ef565b80156103765780601f1061034b57610100808354040283529160200191610376565b820191906000526020600020905b81548152906001019060200180831161035957829003601f168201915b5050505050905090565b600061038b826109bd565b506000908152600460205260409020546001600160a01b031690565b60006103b282610654565b9050806001600160a01b0316836001600160a01b0316036104245760405162461bcd60e51b815260206004820152602160248201527f4552433732313a20617070726f76616c20746f2063757272656e74206f776e656044820152603960f91b60648201526084015b60405180910390fd5b336001600160a01b038216148061044057506104408133610282565b6104b25760405162461bcd60e51b815260206004820152603d60248201527f4552433732313a20617070726f76652063616c6c6572206973206e6f7420746f60448201527f6b656e206f776e6572206f7220617070726f76656420666f7220616c6c000000606482015260840161041b565b6104bc8383610a0d565b505050565b6104cb3382610a7b565b6104e75760405162461bcd60e51b815260040161041b90611729565b6104bc838383610af9565b606060006104ff60085490565b90506000805b828110156105315761051681610c5d565b15610529578161052581611776565b9250505b600101610505565b5060008167ffffffffffffffff81111561054d5761054d61154e565b6040519080825280602002602001820160405280156105a257816020015b61058f60405180606001604052806000815260200160608152602001606081525090565b81526020019060019003908161056b5790505b5090506000805b8481101561062f576105ba81610c5d565b156106275760405180606001604052808281526020016105d9836107a4565b8152602001604051806040016040528060018152602001600160fd1b81525081525083838151811061060d5761060d61179d565b6020026020010181905250818061062390611776565b9250505b6001016105a9565b5090949350505050565b6104bc8383836040518060200160405280600081525061076c565b6000818152600260205260408120546001600160a01b0316806102e85760405162461bcd60e51b8152602060048201526018602482015277115490cdcc8c4e881a5b9d985b1a59081d1bdad95b88125160421b604482015260640161041b565b60006001600160a01b03821661071e5760405162461bcd60e51b815260206004820152602960248201527f4552433732313a2061646472657373207a65726f206973206e6f7420612076616044820152683634b21037bbb732b960b91b606482015260840161041b565b506001600160a01b031660009081526003602052604090205490565b610742610c7a565b61074c6000610cd4565b565b6060600180546102fd906116ef565b610768338383610d26565b5050565b6107763383610a7b565b6107925760405162461bcd60e51b815260040161041b90611729565b61079e84848484610df4565b50505050565b60606107af826109bd565b600082815260066020526040812080546107c8906116ef565b80601f01602080910402602001604051908101604052809291908181526020018280546107f4906116ef565b80156108415780601f1061081657610100808354040283529160200191610841565b820191906000526020600020905b81548152906001019060200180831161082457829003601f168201915b50505050509050600061085f60408051602081019091526000815290565b90508051600003610871575092915050565b8151156108a357808260405160200161088b9291906117b3565b60405160208183030381529060405292505050919050565b6108ac84610e27565b949350505050565b60006108be610c7a565b6108cc600880546001019055565b60006108d760085490565b90506108e38482610e9a565b6108ed8184611007565b9392505050565b6108fc610c7a565b6001600160a01b0381166109615760405162461bcd60e51b815260206004820152602660248201527f4f776e61626c653a206e6577206f776e657220697320746865207a65726f206160448201526564647265737360d01b606482015260840161041b565b61096a81610cd4565b50565b60006001600160e01b031982166380ac58cd60e01b148061099e57506001600160e01b03198216635b5e139f60e01b145b806102e857506301ffc9a760e01b6001600160e01b03198316146102e8565b6109c681610c5d565b61096a5760405162461bcd60e51b8152602060048201526018602482015277115490cdcc8c4e881a5b9d985b1a59081d1bdad95b88125160421b604482015260640161041b565b600081815260046020526040902080546001600160a01b0319166001600160a01b0384169081179091558190610a4282610654565b6001600160a01b03167f8c5be1e5ebec7d5bd14f71427d1e84f3dd0314c0f7b2291e5b200ac8c7c3b92560405160405180910390a45050565b600080610a8783610654565b9050806001600160a01b0316846001600160a01b03161480610ace57506001600160a01b0380821660009081526005602090815260408083209388168352929052205460ff165b806108ac5750836001600160a01b0316610ae784610380565b6001600160a01b031614949350505050565b826001600160a01b0316610b0c82610654565b6001600160a01b031614610b325760405162461bcd60e51b815260040161041b906117e2565b6001600160a01b038216610b945760405162461bcd60e51b8152602060048201526024808201527f4552433732313a207472616e7366657220746f20746865207a65726f206164646044820152637265737360e01b606482015260840161041b565b826001600160a01b0316610ba782610654565b6001600160a01b031614610bcd5760405162461bcd60e51b815260040161041b906117e2565b600081815260046020908152604080832080546001600160a01b03199081169091556001600160a01b0387811680865260038552838620805460001901905590871680865283862080546001019055868652600290945282852080549092168417909155905184937fddf252ad1be2c89b69c2b068fc378daa952ba7f163c4a11628f55a4df523b3ef91a4505050565b6000908152600260205260409020546001600160a01b0316151590565b6007546001600160a01b0316331461074c5760405162461bcd60e51b815260206004820181905260248201527f4f776e61626c653a2063616c6c6572206973206e6f7420746865206f776e6572604482015260640161041b565b600780546001600160a01b038381166001600160a01b0319831681179093556040519116919082907f8be0079c531659141344cd1fd0a4f28419497f9722a3daafe3b4186f6b6457e090600090a35050565b816001600160a01b0316836001600160a01b031603610d875760405162461bcd60e51b815260206004820152601960248201527f4552433732313a20617070726f766520746f2063616c6c657200000000000000604482015260640161041b565b6001600160a01b03838116600081815260056020908152604080832094871680845294825291829020805460ff191686151590811790915591519182527f17307eab39ab6107e8899845ad3d59bd9653f200f220920489ca2b5937696c31910160405180910390a3505050565b610dff848484610af9565b610e0b848484846110c3565b61079e5760405162461bcd60e51b815260040161041b90611827565b6060610e32826109bd565b6000610e4960408051602081019091526000815290565b90506000815111610e6957604051806020016040528060008152506108ed565b80610e73846111c4565b604051602001610e849291906117b3565b6040516020818303038152906040529392505050565b6001600160a01b038216610ef05760405162461bcd60e51b815260206004820181905260248201527f4552433732313a206d696e7420746f20746865207a65726f2061646472657373604482015260640161041b565b610ef981610c5d565b15610f465760405162461bcd60e51b815260206004820152601c60248201527f4552433732313a20746f6b656e20616c7265616479206d696e74656400000000604482015260640161041b565b610f4f81610c5d565b15610f9c5760405162461bcd60e51b815260206004820152601c60248201527f4552433732313a20746f6b656e20616c7265616479206d696e74656400000000604482015260640161041b565b6001600160a01b038216600081815260036020908152604080832080546001019055848352600290915280822080546001600160a01b0319168417905551839291907fddf252ad1be2c89b69c2b068fc378daa952ba7f163c4a11628f55a4df523b3ef908290a45050565b61101082610c5d565b6110735760405162461bcd60e51b815260206004820152602e60248201527f45524337323155524953746f726167653a2055524920736574206f66206e6f6e60448201526d32bc34b9ba32b73a103a37b5b2b760911b606482015260840161041b565b600082815260066020526040902061108b82826118c7565b506040518281527ff8e1a15aba9398e019f0b49df1a4fde98ee17ae345cb5f6b5e2c27f5033e8ce79060200160405180910390a15050565b60006001600160a01b0384163b156111b957604051630a85bd0160e11b81526001600160a01b0385169063150b7a0290611107903390899088908890600401611986565b6020604051808303816000875af1925050508015611142575060408051601f3d908101601f1916820190925261113f918101906119c3565b60015b61119f573d808015611170576040519150601f19603f3d011682016040523d82523d6000602084013e611175565b606091505b5080516000036111975760405162461bcd60e51b815260040161041b90611827565b805181602001fd5b6001600160e01b031916630a85bd0160e11b1490506108ac565b506001949350505050565b606060006111d183611257565b600101905060008167ffffffffffffffff8111156111f1576111f161154e565b6040519080825280601f01601f19166020018201604052801561121b576020820181803683370190505b5090508181016020015b600019016f181899199a1a9b1b9c1cb0b131b232b360811b600a86061a8153600a850494508461122557509392505050565b60008072184f03e93ff9f4daa797ed6e38ed64bf6a1f0160401b83106112965772184f03e93ff9f4daa797ed6e38ed64bf6a1f0160401b830492506040015b6d04ee2d6d415b85acef810000000083106112c2576d04ee2d6d415b85acef8100000000830492506020015b662386f26fc1000083106112e057662386f26fc10000830492506010015b6305f5e10083106112f8576305f5e100830492506008015b612710831061130c57612710830492506004015b6064831061131e576064830492506002015b600a83106102e85760010192915050565b6001600160e01b03198116811461096a57600080fd5b60006020828403121561135757600080fd5b81356108ed8161132f565b60005b8381101561137d578181015183820152602001611365565b50506000910152565b6000815180845261139e816020860160208601611362565b601f01601f19169290920160200192915050565b6020815260006108ed6020830184611386565b6000602082840312156113d757600080fd5b5035919050565b80356001600160a01b03811681146113f557600080fd5b919050565b6000806040838503121561140d57600080fd5b611416836113de565b946020939093013593505050565b60008060006060848603121561143957600080fd5b611442846113de565b9250611450602085016113de565b929592945050506040919091013590565b6000602082016020835280845180835260408501915060408160051b86010192506020860160005b828110156114eb57603f198786030184528151805186526020810151606060208801526114b96060880182611386565b90506040820151915086810360408801526114d48183611386565b965050506020938401939190910190600101611489565b50929695505050505050565b60006020828403121561150957600080fd5b6108ed826113de565b6000806040838503121561152557600080fd5b61152e836113de565b91506020830135801515811461154357600080fd5b809150509250929050565b634e487b7160e01b600052604160045260246000fd5b60008067ffffffffffffffff84111561157f5761157f61154e565b50604051601f19601f85018116603f0116810181811067ffffffffffffffff821117156115ae576115ae61154e565b6040528381529050808284018510156115c657600080fd5b83836020830137600060208583010152509392505050565b600080600080608085870312156115f457600080fd5b6115fd856113de565b935061160b602086016113de565b925060408501359150606085013567ffffffffffffffff81111561162e57600080fd5b8501601f8101871361163f57600080fd5b61164e87823560208401611564565b91505092959194509250565b6000806040838503121561166d57600080fd5b611676836113de565b9150602083013567ffffffffffffffff81111561169257600080fd5b8301601f810185136116a357600080fd5b6116b285823560208401611564565b9150509250929050565b600080604083850312156116cf57600080fd5b6116d8836113de565b91506116e6602084016113de565b90509250929050565b600181811c9082168061170357607f821691505b60208210810361172357634e487b7160e01b600052602260045260246000fd5b50919050565b6020808252602d908201527f4552433732313a2063616c6c6572206973206e6f7420746f6b656e206f776e6560408201526c1c881bdc88185c1c1c9bdd9959609a1b606082015260800190565b60006001820161179657634e487b7160e01b600052601160045260246000fd5b5060010190565b634e487b7160e01b600052603260045260246000fd5b600083516117c5818460208801611362565b8351908301906117d9818360208801611362565b01949350505050565b60208082526025908201527f4552433732313a207472616e736665722066726f6d20696e636f72726563742060408201526437bbb732b960d91b606082015260800190565b60208082526032908201527f4552433732313a207472616e7366657220746f206e6f6e20455243373231526560408201527131b2b4bb32b91034b6b83632b6b2b73a32b960711b606082015260800190565b601f8211156104bc57806000526020600020601f840160051c810160208510156118a05750805b601f840160051c820191505b818110156118c057600081556001016118ac565b5050505050565b815167ffffffffffffffff8111156118e1576118e161154e565b6118f5816118ef84546116ef565b84611879565b6020601f82116001811461192957600083156119115750848201515b600019600385901b1c1916600184901b1784556118c0565b600084815260208120601f198516915b828110156119595787850151825560209485019460019092019101611939565b50848210156119775786840151600019600387901b60f8161c191681555b50505050600190811b01905550565b6001600160a01b03858116825284166020820152604081018390526080606082018190526000906119b990830184611386565b9695505050505050565b6000602082840312156119d557600080fd5b81516108ed8161132f56fea264697066735822122007f051662936fd3fb06b00900d5f1b2bc2ca76276b585d95f7a37281ff4779a464736f6c634300081c0033",
  "linkReferences": {},
  "deployedLinkReferences": {}
}